:020000040000FA
:0400000017EF3EF0C8
:107C1C001200720ED36E1200000E936E000E956E53
:107C2C001200000EF86E000123EF3EF0010EC26E42
:107C3C00000EC16E880EC06E12002BEC3EF069EC8B
:107C4C003FF025EF3EF000EF00F00FEC3EF012ECB1
:107C5C003EF00EEC3EF01CEC3EF01200056E0544BE
:107C6C00E846FC0B0109C26EC282C2B240EF3EF084
:107C7C0042EF3EF03BEF3EF0C350C4CF03F0046A3A
:107C8C0003C004F0036A0310016E0450026E12006C
:107C9C00000E0E6E0ABE57EF3EF055EF3EF05DEF54
:107CAC003EF0096C0A1ED8B00A2A010E0E6E0CBEEC
:107CBC0064EF3EF062EF3EF068EF3EF00B6C0C1E92
:107CCC00D8B00C2A0B500C10D8B46FEF3EF071EFFB
:107CDC003EF095EF3EF0010E0D6E79EF3EF0D89030
:107CEC000B360C360D2A0CAE7EEF3EF080EF3EF0DC
:107CFC0075EF3EF00B50095C0C500A58D8A089EF78
:107D0C003EF08BEF3EF08FEF3EF00B50095E0C50C7
:107D1C000A5AD8900C320B320D2E80EF3EF00E50DA
:107D2C00D8B49BEF3EF09DEF3EF0A1EF3EF0096C16
:107D3C000A1ED8B00A2A09C009F00AC00AF01200BB
:107D4C00D0EF3EF0C00E8C6E06EF3FF0F90E8C6E4D
:107D5C0006EF3FF0A40E8C6E06EF3FF0B00E8C6E6B
:107D6C0006EF3FF0990E8C6E06EF3FF0920E8C6E84
:107D7C0006EF3FF0820E8C6E06EF3FF0F80E8C6E25
:107D8C0006EF3FF0800E8C6E06EF3FF0900E8C6E7F
:107D9C0006EF3FF001C003F002C004F00450000AEB
:107DAC00D8B4DBEF3EF006EF3FF00350000AD8B436
:107DBC00A8EF3EF0010AD8B4ACEF3EF0030AD8B4F9
:107DCC00B0EF3EF0010AD8B4B4EF3EF0070AD8B4D5
:107DDC00B8EF3EF0010AD8B4BCEF3EF0030AD8B4B9
:107DEC00C0EF3EF0010AD8B4C4EF3EF00F0AD8B48D
:107DFC00C8EF3EF0010AD8B4CCEF3EF006EF3FF0EE
:107E0C001200000E066E04BE10EF3FF00EEF3FF0B6
:107E1C0016EF3FF0036C041ED8B0042A010E066E58
:107E2C0002BE1DEF3FF01BEF3FF023EF3FF0016C64
:107E3C00021ED8B0022A010E061A000E086E000EA1
:107E4C00076E03500410D8B42EEF3FF030EF3FF024
:107E5C0058EF3FF0010E056E38EF3FF0D890033627
:107E6C000436052A04AE3DEF3FF03FEF3FF034EF10
:107E7C003FF0D890073608360350015C0450025886
:107E8C00D8A04BEF3FF04DEF3FF052EF3FF00350D7
:107E9C00015E0450025A0780D89004320332052E3A
:107EAC003FEF3FF00650D8B45EEF3FF060EF3FF08D
:107EBC0064EF3FF0076C081ED8B0082A07C001F029
:107ECC0008C002F01200000E34EC3EF001C010F0BD
:107EDC0002C011F010C001F011C002F0030E046ECC
:107EEC00E80E036E07EC3FF001C018F002C019F069
:107EFC00000E046E640E036E10C001F011C002F08F
:107F0C0007EC3FF001C009F002C00AF0000E0C6E45
:107F1C000A0E0B6E4EEC3EF009C016F00AC017F0BC
:107F2C00000E046E0A0E036E10C001F011C002F0B8
:107F3C0007EC3FF001C009F002C00AF0000E0C6E15
:107F4C000A0E0B6E4EEC3EF009C014F00AC015F090
:107F5C0010C009F011C00AF0000E0C6E0A0E0B6E68
:107F6C004EEC3EF009C012F00AC013F00D0E0F6E6D
:107F7C00FC0EE82EFED70F2EFCD718C001F019C04E
:107F8C0002F0A6EC3EF00E0E8A6E0D0E0F6EFC0E7D
:107F9C00E82EFED70F2EFCD716C001F017C002F04A
:107FAC00A6EC3EF00D0E8A6E0D0E0F6EFC0EE82E3A
:107FBC00FED70F2EFCD714C001F015C002F0A6ECB2
:107FCC003EF00B0E8A6E0D0E0F6EFC0EE82EFED7D9
:107FDC000F2EFCD712C001F013C002F0A6EC3EF03D
:107FEC00070E8A6E0D0E0F6EFC0EE82EFED70F2EAE
:047FFC00FCD712009C
:020000040020DA
:08000000FFFFFFFFFFFFFFFF00
:020000040030CA
:0E00000000081F1EFF8381FF0FC00FE00F409E
:00000001FF
